:020000020000FC
:040000000C9400005C
:10FC00000FEF0DBF00E10EBF4DD0BF9AC79A20E0A5
:10FC100030E649E059D0002321F052D00A3231F0C9
:10FC20003DC0215030404040A9F738C000E844D0E2
:10FC300000E042D00CEF40D000E03ED045D00023A1
:10FC4000E9F33ED0202F3CD0302F3AD0402FF9019D
:10FC500003E01AD0E0E0F1E0C0E0D1E031D0019360
:10FC60002197E1F7F901A0E0B1E0C0E8D0E00D9004
:10FC70001D9001E009D032962197C9F7F90105E0FE
:10FC800003D001E419D0DACF1091680010FDFCCF49
:10FC9000E199FECF00936800E8950895BF98C79852
:10FCA0000C94000000E0009390000BE009B902E022
:10FCB0000BB908E10AB908955D9BFECF0CB9089510
:10FCC0005F9BFECF0CB1089500E05F9901E00895BD
:00000001FF
